{
  "contractName": "CitizensRecord",
  "abi": [
    {
      "constant": true,
      "inputs": [],
      "name": "status",
      "outputs": [
        {
          "name": "",
          "type": "bool"
        }
      ],
      "payable": false,
      "stateMutability": "view",
      "type": "function"
    },
    {
      "constant": true,
      "inputs": [],
      "name": "numberOfActiveUsers",
      "outputs": [
        {
          "name": "",
          "type": "uint256"
        }
      ],
      "payable": false,
      "stateMutability": "view",
      "type": "function"
    },
    {
      "inputs": [],
      "payable": false,
      "stateMutability": "nonpayable",
      "type": "constructor"
    },
    {
      "anonymous": false,
      "inputs": [
        {
          "indexed": false,
          "name": "ID",
          "type": "uint32"
        }
      ],
      "name": "UserAdded",
      "type": "event"
    },
    {
      "anonymous": false,
      "inputs": [
        {
          "indexed": false,
          "name": "ID",
          "type": "uint32"
        }
      ],
      "name": "UserRemoved",
      "type": "event"
    },
    {
      "anonymous": false,
      "inputs": [
        {
          "indexed": false,
          "name": "Status",
          "type": "bool"
        }
      ],
      "name": "StatusChanged",
      "type": "event"
    },
    {
      "anonymous": false,
      "inputs": [
        {
          "indexed": false,
          "name": "addr",
          "type": "address"
        },
        {
          "indexed": false,
          "name": "roleName",
          "type": "uint8"
        }
      ],
      "name": "RoleAdded",
      "type": "event"
    },
    {
      "anonymous": false,
      "inputs": [
        {
          "indexed": false,
          "name": "addr",
          "type": "address"
        },
        {
          "indexed": false,
          "name": "roleName",
          "type": "uint8"
        }
      ],
      "name": "RoleRemoved",
      "type": "event"
    },
    {
      "constant": false,
      "inputs": [
        {
          "name": "_name",
          "type": "string"
        },
        {
          "name": "_lastName",
          "type": "string"
        },
        {
          "name": "_birthDate",
          "type": "string"
        },
        {
          "name": "_gender",
          "type": "string"
        },
        {
          "name": "_nacionality",
          "type": "string"
        },
        {
          "name": "_residence",
          "type": "string"
        },
        {
          "name": "_city",
          "type": "string"
        },
        {
          "name": "_ID",
          "type": "uint32"
        },
        {
          "name": "_image",
          "type": "bytes32"
        }
      ],
      "name": "register_citizen",
      "outputs": [],
      "payable": false,
      "stateMutability": "nonpayable",
      "type": "function"
    },
    {
      "constant": false,
      "inputs": [
        {
          "name": "_name",
          "type": "string"
        },
        {
          "name": "_lastName",
          "type": "string"
        },
        {
          "name": "_birthDate",
          "type": "string"
        },
        {
          "name": "_gender",
          "type": "string"
        },
        {
          "name": "_nacionality",
          "type": "string"
        },
        {
          "name": "_residence",
          "type": "string"
        },
        {
          "name": "_city",
          "type": "string"
        },
        {
          "name": "_ID",
          "type": "uint32"
        },
        {
          "name": "_image",
          "type": "bytes32"
        }
      ],
      "name": "modofy_citizen",
      "outputs": [],
      "payable": false,
      "stateMutability": "nonpayable",
      "type": "function"
    },
    {
      "constant": false,
      "inputs": [
        {
          "name": "ID",
          "type": "uint32"
        }
      ],
      "name": "removeUser",
      "outputs": [],
      "payable": false,
      "stateMutability": "nonpayable",
      "type": "function"
    },
    {
      "constant": false,
      "inputs": [
        {
          "name": "ID",
          "type": "uint32"
        },
        {
          "name": "record",
          "type": "bytes32"
        },
        {
          "name": "date",
          "type": "bytes32"
        }
      ],
      "name": "registerClinicRecord",
      "outputs": [],
      "payable": false,
      "stateMutability": "nonpayable",
      "type": "function"
    },
    {
      "constant": false,
      "inputs": [
        {
          "name": "ID",
          "type": "uint32"
        },
        {
          "name": "record",
          "type": "bytes32"
        },
        {
          "name": "date",
          "type": "bytes32"
        }
      ],
      "name": "registerLegalRecord",
      "outputs": [],
      "payable": false,
      "stateMutability": "nonpayable",
      "type": "function"
    },
    {
      "constant": false,
      "inputs": [
        {
          "name": "ID",
          "type": "uint32"
        },
        {
          "name": "recordPosition",
          "type": "uint32"
        }
      ],
      "name": "deleteClinicRecord",
      "outputs": [],
      "payable": false,
      "stateMutability": "nonpayable",
      "type": "function"
    },
    {
      "constant": false,
      "inputs": [
        {
          "name": "ID",
          "type": "uint32"
        },
        {
          "name": "recordPosition",
          "type": "uint32"
        }
      ],
      "name": "deleteLegalRecord",
      "outputs": [],
      "payable": false,
      "stateMutability": "nonpayable",
      "type": "function"
    },
    {
      "constant": true,
      "inputs": [
        {
          "name": "ID",
          "type": "uint32"
        }
      ],
      "name": "getNumberClinicRecords",
      "outputs": [
        {
          "name": "",
          "type": "uint256"
        }
      ],
      "payable": false,
      "stateMutability": "view",
      "type": "function"
    },
    {
      "constant": true,
      "inputs": [
        {
          "name": "ID",
          "type": "uint32"
        }
      ],
      "name": "getNumberLegalRecords",
      "outputs": [
        {
          "name": "",
          "type": "uint256"
        }
      ],
      "payable": false,
      "stateMutability": "view",
      "type": "function"
    },
    {
      "constant": false,
      "inputs": [
        {
          "name": "ID",
          "type": "uint32"
        },
        {
          "name": "position",
          "type": "uint32"
        }
      ],
      "name": "getClinicRecords",
      "outputs": [
        {
          "name": "",
          "type": "bytes32[3]"
        }
      ],
      "payable": false,
      "stateMutability": "nonpayable",
      "type": "function"
    },
    {
      "constant": false,
      "inputs": [
        {
          "name": "ID",
          "type": "uint32"
        },
        {
          "name": "position",
          "type": "uint32"
        }
      ],
      "name": "getLegalRecords",
      "outputs": [
        {
          "name": "",
          "type": "bytes32[3]"
        }
      ],
      "payable": false,
      "stateMutability": "nonpayable",
      "type": "function"
    },
    {
      "constant": false,
      "inputs": [
        {
          "name": "addr",
          "type": "address"
        },
        {
          "name": "roleNumber",
          "type": "uint8"
        }
      ],
      "name": "addRole",
      "outputs": [],
      "payable": false,
      "stateMutability": "nonpayable",
      "type": "function"
    },
    {
      "constant": false,
      "inputs": [
        {
          "name": "addr",
          "type": "address"
        },
        {
          "name": "roleNumber",
          "type": "uint8"
        }
      ],
      "name": "removeRole",
      "outputs": [],
      "payable": false,
      "stateMutability": "nonpayable",
      "type": "function"
    },
    {
      "constant": true,
      "inputs": [
        {
          "name": "addr",
          "type": "address"
        },
        {
          "name": "roleName",
          "type": "uint8"
        }
      ],
      "name": "hasSpecificRole",
      "outputs": [
        {
          "name": "",
          "type": "bool"
        }
      ],
      "payable": false,
      "stateMutability": "view",
      "type": "function"
    },
    {
      "constant": false,
      "inputs": [
        {
          "name": "st",
          "type": "bool"
        }
      ],
      "name": "changeStatus",
      "outputs": [],
      "payable": false,
      "stateMutability": "nonpayable",
      "type": "function"
    },
    {
      "constant": true,
      "inputs": [
        {
          "name": "_ID",
          "type": "uint32"
        }
      ],
      "name": "get_name",
      "outputs": [
        {
          "name": "",
          "type": "uint32"
        },
        {
          "name": "",
          "type": "string"
        },
        {
          "name": "",
          "type": "string"
        }
      ],
      "payable": false,
      "stateMutability": "view",
      "type": "function"
    },
    {
      "constant": true,
      "inputs": [
        {
          "name": "_ID",
          "type": "uint32"
        }
      ],
      "name": "get_residency",
      "outputs": [
        {
          "name": "",
          "type": "uint32"
        },
        {
          "name": "",
          "type": "string"
        },
        {
          "name": "",
          "type": "string"
        },
        {
          "name": "",
          "type": "string"
        },
        {
          "name": "",
          "type": "string"
        }
      ],
      "payable": false,
      "stateMutability": "view",
      "type": "function"
    },
    {
      "constant": true,
      "inputs": [
        {
          "name": "_ID",
          "type": "uint32"
        }
      ],
      "name": "get_basic_info",
      "outputs": [
        {
          "name": "",
          "type": "uint32"
        },
        {
          "name": "",
          "type": "string"
        },
        {
          "name": "",
          "type": "string"
        },
        {
          "name": "",
          "type": "string"
        },
        {
          "name": "",
          "type": "string"
        },
        {
          "name": "",
          "type": "bytes32"
        }
      ],
      "payable": false,
      "stateMutability": "view",
      "type": "function"
    },
    {
      "constant": true,
      "inputs": [],
      "name": "view_president_address",
      "outputs": [
        {
          "name": "",
          "type": "address"
        }
      ],
      "payable": false,
      "stateMutability": "view",
      "type": "function"
    }
  ],
  "bytecode": "0x60806040523480156200001157600080fd5b50336001806101000a81548173ffffffffffffffffffffffffffffffffffffffff021916908373ffffffffffffffffffffffffffffffffffffffff1602179055506200006e33600362000074640100000000026401000000009004565b62000318565b6001809054906101000a900473ffffffffffffffffffffffffffffffffffffffff1673ffffffffffffffffffffffffffffffffffffffff163373ffffffffffffffffffffffffffffffffffffffff161415156200015f576040517f08c379a00000000000000000000000000000000000000000000000000000000081526004018080602001828103825260268152602001807f4f6e6c79207468652061646d696e2063616e2063616c6c20746869732066756e81526020017f6374696f6e2e000000000000000000000000000000000000000000000000000081525060400191505060405180910390fd5b60008160ff161015801562000177575060048160ff16105b1515620001ec576040517f08c379a00000000000000000000000000000000000000000000000000000000081526004018080602001828103825260148152602001807f526f6c65206e6f7420696e20746865206c69737400000000000000000000000081525060200191505060405180910390fd5b6200020782826200020b640100000000026401000000009004565b5050565b62000245826000808460ff1660ff168152602001908152602001600020620002ba64010000000002620035a8179091906401000000009004565b7f0ed8a6a6a166243876472f7a8610b62c1a76c67911642d39ff34ead38105534f8282604051808373ffffffffffffffffffffffffffffffffffffffff1673ffffffffffffffffffffffffffffffffffffffff1681526020018260ff1660ff1681526020019250505060405180910390a15050565b60018260000160008373ffffffffffffffffffffffffffffffffffffffff1673ffffffffffffffffffffffffffffffffffffffff16815260200190815260200160002060006101000a81548160ff0219169083151502179055505050565b61386280620003286000396000f30060806040526004361061011d576000357c0100000000000000000000000000000000000000000000000000000000900463ffffffff16806301801f0a1461012257806312cb7b91146101a1578063200d2ed2146101e457806328b891ae146102135780633bb1eb471461029257806344deb6f3146102e95780636ceed0e8146103395780638effb9cc146103885780639b3de49b146103cb5780639f13058c146103fa578063a678a759146105fd578063abc2039914610828578063af1db4dd14610a53578063b578e59d14610a7e578063b74866fb14610ab1578063c1c203f114610b01578063cb46845414610b50578063cc96abbc14610bb8578063ce894e6614610bff578063dbf66fbc14610d2a578063ddbda39714610d71575b600080fd5b34801561012e57600080fd5b50610163600480360381019080803563ffffffff169060200190929190803563ffffffff169060200190929190505050610f83565b6040518082600360200280838360005b8381101561018e578082015181840152602081019050610173565b5050505090500191505060405180910390f35b3480156101ad57600080fd5b506101e2600480360381019080803563ffffffff169060200190929190803563ffffffff16906020019092919050505061111d565b005b3480156101f057600080fd5b506101f961136e565b604051808215151515815260200191505060405180910390f35b34801561021f57600080fd5b50610254600480360381019080803563ffffffff169060200190929190803563ffffffff169060200190929190505050611381565b6040518082600360200280838360005b8381101561027f578082015181840152602081019050610264565b5050505090500191505060405180910390f35b34801561029e57600080fd5b506102a761151b565b604051808273ffffffffffffffffffffffffffffffffffffffff1673ffffffffffffffffffffffffffffffffffffffff16815260200191505060405180910390f35b3480156102f557600080fd5b50610337600480360381019080803573ffffffffffffffffffffffffffffffffffffffff169060200190929190803560ff169060200190929190505050611544565b005b34801561034557600080fd5b50610386600480360381019080803563ffffffff169060200190929190803560001916906020019092919080356000191690602001909291905050506116c7565b005b34801561039457600080fd5b506103c9600480360381019080803563ffffffff169060200190929190803563ffffffff1690602001909291905050506118af565b005b3480156103d757600080fd5b506103f8600480360381019080803515159060200190929190505050611b00565b005b34801561040657600080fd5b5061042b600480360381019080803563ffffffff169060200190929190505050611c42565b604051808663ffffffff1663ffffffff16815260200180602001806020018060200180602001858103855289818151815260200191508051906020019080838360005b8381101561048957808201518184015260208101905061046e565b50505050905090810190601f1680156104b65780820380516001836020036101000a031916815260200191505b50858103845288818151815260200191508051906020019080838360005b838110156104ef5780820151818401526020810190506104d4565b50505050905090810190601f16801561051c5780820380516001836020036101000a031916815260200191505b50858103835287818151815260200191508051906020019080838360005b8381101561055557808201518184015260208101905061053a565b50505050905090810190601f1680156105825780820380516001836020036101000a031916815260200191505b50858103825286818151815260200191508051906020019080838360005b838110156105bb5780820151818401526020810190506105a0565b50505050905090810190601f1680156105e85780820380516001836020036101000a031916815260200191505b50995050505050505050505060405180910390f35b34801561060957600080fd5b50610826600480360381019080803590602001908201803590602001908080601f0160208091040260200160405190810160405280939291908181526020018383808284378201915050505050509192919290803590602001908201803590602001908080601f0160208091040260200160405190810160405280939291908181526020018383808284378201915050505050509192919290803590602001908201803590602001908080601f0160208091040260200160405190810160405280939291908181526020018383808284378201915050505050509192919290803590602001908201803590602001908080601f0160208091040260200160405190810160405280939291908181526020018383808284378201915050505050509192919290803590602001908201803590602001908080601f0160208091040260200160405190810160405280939291908181526020018383808284378201915050505050509192919290803590602001908201803590602001908080601f0160208091040260200160405190810160405280939291908181526020018383808284378201915050505050509192919290803590602001908201803590602001908080601f0160208091040260200160405190810160405280939291908181526020018383808284378201915050505050509192919290803563ffffffff1690602001909291908035600019169060200190929190505050611f88565b005b34801561083457600080fd5b50610a51600480360381019080803590602001908201803590602001908080601f0160208091040260200160405190810160405280939291908181526020018383808284378201915050505050509192919290803590602001908201803590602001908080601f0160208091040260200160405190810160405280939291908181526020018383808284378201915050505050509192919290803590602001908201803590602001908080601f0160208091040260200160405190810160405280939291908181526020018383808284378201915050505050509192919290803590602001908201803590602001908080601f0160208091040260200160405190810160405280939291908181526020018383808284378201915050505050509192919290803590602001908201803590602001908080601f0160208091040260200160405190810160405280939291908181526020018383808284378201915050505050509192919290803590602001908201803590602001908080601f0160208091040260200160405190810160405280939291908181526020018383808284378201915050505050509192919290803590602001908201803590602001908080601f0160208091040260200160405190810160405280939291908181526020018383808284378201915050505050509192919290803563ffffffff169060200190929190803560001916906020019092919050505061221b565b005b348015610a5f57600080fd5b50610a686125b0565b6040518082815260200191505060405180910390f35b348015610a8a57600080fd5b50610aaf600480360381019080803563ffffffff1690602001909291905050506125b6565b005b348015610abd57600080fd5b50610aff600480360381019080803573ffffffffffffffffffffffffffffffffffffffff169060200190929190803560ff1690602001909291905050506127b1565b005b348015610b0d57600080fd5b50610b4e600480360381019080803563ffffffff16906020019092919080356000191690602001909291908035600019169060200190929190505050612934565b005b348015610b5c57600080fd5b50610b9e600480360381019080803573ffffffffffffffffffffffffffffffffffffffff169060200190929190803560ff169060200190929190505050612b1c565b604051808215151515815260200191505060405180910390f35b348015610bc457600080fd5b50610be9600480360381019080803563ffffffff169060200190929190505050612b30565b6040518082815260200191505060405180910390f35b348015610c0b57600080fd5b50610c30600480360381019080803563ffffffff169060200190929190505050612c5c565b604051808463ffffffff1663ffffffff1681526020018060200180602001838103835285818151815260200191508051906020019080838360005b83811015610c86578082015181840152602081019050610c6b565b50505050905090810190601f168015610cb35780820380516001836020036101000a031916815260200191505b50838103825284818151815260200191508051906020019080838360005b83811015610cec578082015181840152602081019050610cd1565b50505050905090810190601f168015610d195780820380516001836020036101000a031916815260200191505b509550505050505060405180910390f35b348015610d3657600080fd5b50610d5b600480360381019080803563ffffffff169060200190929190505050612e1d565b6040518082815260200191505060405180910390f35b348015610d7d57600080fd5b50610da2600480360381019080803563ffffffff169060200190929190505050612f49565b604051808763ffffffff1663ffffffff16815260200180602001806020018060200180602001866000191660001916815260200185810385528a818151815260200191508051906020019080838360005b83811015610e0e578082015181840152602081019050610df3565b50505050905090810190601f168015610e3b5780820380516001836020036101000a031916815260200191505b50858103845289818151815260200191508051906020019080838360005b83811015610e74578082015181840152602081019050610e59565b50505050905090810190601f168015610ea15780820380516001836020036101000a031916815260200191505b50858103835288818151815260200191508051906020019080838360005b83811015610eda578082015181840152602081019050610ebf565b50505050905090810190601f168015610f075780820380516001836020036101000a031916815260200191505b50858103825287818151815260200191508051906020019080838360005b83811015610f40578082015181840152602081019050610f25565b50505050905090810190601f168015610f6d5780820380516001836020036101000a031916815260200191505b509a505050505050505050505060405180910390f35b610f8b613664565b336040805190810160405280600160ff168152602001600360ff1681525060008060009150600090505b60028160ff161015610ffb57610fe084848360ff16600281101515610fd657fe5b60200201516132b6565b15610fee5760019150610ffb565b8080600101915050610fb5565b81151561100757600080fd5b611010876132ea565b1515611084576040517f08c379a00000000000000000000000000000000000000000000000000000000081526004018080602001828103825260198152602001807f5468652049442069742773206e6f7420617661696c61626c650000000000000081525060200191505060405180910390fd5b611111600660008963ffffffff1663ffffffff1681526020019081526020016000206000018763ffffffff168154811015156110bc57fe5b906000526020600020906003020160606040519081016040529081600082015460001916600019168152602001600182015460001916600019168152602001600282015460001916600019168152505061332e565b94505050505092915050565b336040805190810160405280600260ff168152602001600360ff1681525060008060009150600090505b60028160ff16101561118d5761117284848360ff1660028110151561116857fe5b60200201516132b6565b15611180576001915061118d565b8080600101915050611147565b81151561119957600080fd5b6111a2866133d8565b1515611216576040517f08c379a00000000000000000000000000000000000000000000000000000000081526004018080602001828103825260138152602001807f54686520636974697a656e20697320646561640000000000000000000000000081525060200191505060405180910390fd5b7f7472756500000000000000000000000000000000000000000000000000000000600560008863ffffffff1663ffffffff1681526020019081526020016000206000018663ffffffff1681548110151561126c57fe5b906000526020600020906003020160020154600019161415156112f7576040517f08c379a000000000000000000000000000000000000000000000000000000000815260040180806020018281038252601b8152602001807f54686520696e636964656e7420646f6573206e6f74206578697374000000000081525060200191505060405180910390fd5b7f66616c7365000000000000000000000000000000000000000000000000000000600560008863ffffffff1663ffffffff1681526020019081526020016000206000018663ffffffff1681548110151561134d57fe5b90600052602060002090600302016002018160001916905550505050505050565b600160009054906101000a900460ff1681565b611389613664565b336040805190810160405280600260ff168152602001600360ff1681525060008060009150600090505b60028160ff1610156113f9576113de84848360ff166002811015156113d457fe5b60200201516132b6565b156113ec57600191506113f9565b80806001019150506113b3565b81151561140557600080fd5b61140e876132ea565b1515611482576040517f08c379a00000000000000000000000000000000000000000000000000000000081526004018080602001828103825260198152602001807f5468652049442069742773206e6f7420617661696c61626c650000000000000081525060200191505060405180910390fd5b61150f600560008963ffffffff1663ffffffff1681526020019081526020016000206000018763ffffffff168154811015156114ba57fe5b906000526020600020906003020160606040519081016040529081600082015460001916600019168152602001600182015460001916600019168152602001600282015460001916600019168152505061332e565b94505050505092915050565b60006001809054906101000a900473ffffffffffffffffffffffffffffffffffffffff16905090565b6001809054906101000a900473ffffffffffffffffffffffffffffffffffffffff1673ffffffffffffffffffffffffffffffffffffffff163373ffffffffffffffffffffffffffffffffffffffff1614151561162e576040517f08c379a00000000000000000000000000000000000000000000000000000000081526004018080602001828103825260268152602001807f4f6e6c79207468652061646d696e2063616e2063616c6c20746869732066756e81526020017f6374696f6e2e000000000000000000000000000000000000000000000000000081525060400191505060405180910390fd5b60008160ff1610158015611645575060048160ff16105b15156116b9576040517f08c379a00000000000000000000000000000000000000000000000000000000081526004018080602001828103825260148152602001807f526f6c65206e6f7420696e20746865206c69737400000000000000000000000081525060200191505060405180910390fd5b6116c38282613411565b5050565b6116cf613687565b336040805190810160405280600260ff168152602001600360ff1681525060008060009150600090505b60028160ff16101561173f5761172484848360ff1660028110151561171a57fe5b60200201516132b6565b15611732576001915061173f565b80806001019150506116f9565b81151561174b57600080fd5b611754886133d8565b15156117c8576040517f08c379a00000000000000000000000000000000000000000000000000000000081526004018080602001828103825260138152602001807f54686520636974697a656e20697320646561640000000000000000000000000081525060200191505060405180910390fd5b868560000190600019169081600019168152505085856020019060001916908160001916815250507f747275650000000000000000000000000000000000000000000000000000000085604001906000191690816000191681525050600560008963ffffffff1663ffffffff16815260200190815260200160002060000185908060018154018082558091505090600182039060005260206000209060030201600090919290919091506000820151816000019060001916905560208201518160010190600019169055604082015181600201906000191690555050505050505050505050565b336040805190810160405280600160ff168152602001600360ff1681525060008060009150600090505b60028160ff16101561191f5761190484848360ff166002811015156118fa57fe5b60200201516132b6565b15611912576001915061191f565b80806001019150506118d9565b81151561192b57600080fd5b611934866133d8565b15156119a8576040517f08c379a00000000000000000000000000000000000000000000000000000000081526004018080602001828103825260138152602001807f54686520636974697a656e20697320646561640000000000000000000000000081525060200191505060405180910390fd5b7f7472756500000000000000000000000000000000000000000000000000000000600660008863ffffffff1663ffffffff1681526020019081526020016000206000018663ffffffff168154811015156119fe57fe5b90600052602060002090600302016002015460001916141515611a89576040517f08c379a000000000000000000000000000000000000000000000000000000000815260040180806020018281038252601b8152602001807f54686520696e636964656e7420646f6573206e6f74206578697374000000000081525060200191505060405180910390fd5b7f66616c7365000000000000000000000000000000000000000000000000000000600660008863ffffffff1663ffffffff1681526020019081526020016000206000018663ffffffff16815481101515611adf57fe5b90600052602060002090600302016002018160001916905550505050505050565b6001809054906101000a900473ffffffffffffffffffffffffffffffffffffffff1673ffffffffffffffffffffffffffffffffffffffff163373ffffffffffffffffffffffffffffffffffffffff16141515611bea576040517f08c379a00000000000000000000000000000000000000000000000000000000081526004018080602001828103825260268152602001807f4f6e6c79207468652061646d696e2063616e2063616c6c20746869732066756e81526020017f6374696f6e2e000000000000000000000000000000000000000000000000000081525060400191505060405180910390fd5b80600160006101000a81548160ff0219169083151502179055507f4dcbe1841ee9bd9c888e46c0b35574429b1c0f1071806180028dee2f9a10643081604051808215151515815260200191505060405180910390a150565b6000606080606080600460008763ffffffff1663ffffffff16815260200190815260200160002060080160009054906101000a900463ffffffff16600460008863ffffffff1663ffffffff168152602001908152602001600020600101600460008963ffffffff1663ffffffff168152602001908152602001600020600501600460008a63ffffffff1663ffffffff168152602001908152602001600020600601600460008b63ffffffff1663ffffffff168152602001908152602001600020600701838054600181600116156101000203166002900480601f016020809104026020016040519081016040528092919081815260200182805460018160011615610100020316600290048015611d9a5780601f10611d6f57610100808354040283529160200191611d9a565b820191906000526020600020905b815481529060010190602001808311611d7d57829003601f168201915b50505050509350828054600181600116156101000203166002900480601f016020809104026020016040519081016040528092919081815260200182805460018160011615610100020316600290048015611e365780601f10611e0b57610100808354040283529160200191611e36565b820191906000526020600020905b815481529060010190602001808311611e1957829003601f168201915b50505050509250818054600181600116156101000203166002900480601f016020809104026020016040519081016040528092919081815260200182805460018160011615610100020316600290048015611ed25780601f10611ea757610100808354040283529160200191611ed2565b820191906000526020600020905b815481529060010190602001808311611eb557829003601f168201915b50505050509150808054600181600116156101000203166002900480601f016020809104026020016040519081016040528092919081815260200182805460018160011615610100020316600290048015611f6e5780601f10611f4357610100808354040283529160200191611f6e565b820191906000526020600020905b815481529060010190602001808311611f5157829003601f168201915b505050505090509450945094509450945091939590929450565b60006001809054906101000a900473ffffffffffffffffffffffffffffffffffffffff1673ffffffffffffffffffffffffffffffffffffffff163373ffffffffffffffffffffffffffffffffffffffff16141515612074576040517f08c379a00000000000000000000000000000000000000000000000000000000081526004018080602001828103825260268152602001807f4f6e6c79207468652061646d696e2063616e2063616c6c20746869732066756e81526020017f6374696f6e2e000000000000000000000000000000000000000000000000000081525060400191505060405180910390fd5b61207d836132ea565b1515156120f2576040517f08c379a000000000000000000000000000000000000000000000000000000000815260040180806020018281038252601c8152602001807f7468657265206973206e6f206f6e65207769746820746869732049440000000081525060200191505060405180910390fd5b600460008463ffffffff1663ffffffff16815260200190815260200160002090508981600101908051906020019061212b9291906136b2565b50888160020190805190602001906121449291906136b2565b508781600301908051906020019061215d9291906136b2565b50868160040190805190602001906121769291906136b2565b508581600501908051906020019061218f9291906136b2565b50848160060190805190602001906121a89291906136b2565b50838160070190805190602001906121c19291906136b2565b50828160080160006101000a81548163ffffffff021916908363ffffffff1602179055508181600901816000191690555060018160000160006101000a81548160ff02191690831515021790555050505050505050505050565b612223613732565b6001809054906101000a900473ffffffffffffffffffffffffffffffffffffffff1673ffffffffffffffffffffffffffffffffffffffff163373ffffffffffffffffffffffffffffffffffffffff1614151561230d576040517f08c379a00000000000000000000000000000000000000000000000000000000081526004018080602001828103825260268152602001807f4f6e6c79207468652061646d696e2063616e2063616c6c20746869732066756e81526020017f6374696f6e2e000000000000000000000000000000000000000000000000000081525060400191505060405180910390fd5b612316836132ea565b151561238a576040517f08c379a00000000000000000000000000000000000000000000000000000000081526004018080602001828103825260198152602001807f5468652049442069742773206e6f7420617661696c61626c650000000000000081525060200191505060405180910390fd5b898160200181905250888160400181905250878160600181905250868160800181905250858160a00181905250848160c00181905250838160e001819052508281610100019063ffffffff16908163ffffffff1681525050818161012001906000191690816000191681525050600181600001901515908115158152505080600460008563ffffffff1663ffffffff16815260200190815260200160002060008201518160000160006101000a81548160ff0219169083151502179055506020820151816001019080519060200190612464929190613791565b506040820151816002019080519060200190612481929190613791565b50606082015181600301908051906020019061249e929190613791565b5060808201518160040190805190602001906124bb929190613791565b5060a08201518160050190805190602001906124d8929190613791565b5060c08201518160060190805190602001906124f5929190613791565b5060e0820151816007019080519060200190612512929190613791565b506101008201518160080160006101000a81548163ffffffff021916908363ffffffff16021790555061012082015181600901906000191690559050506002600081548092919060010191905055507fbfb31782d83b12c928defa9ea7324506943e1770c75a41c4fbd61dec5f31fa4483604051808263ffffffff1663ffffffff16815260200191505060405180910390a150505050505050505050565b60025481565b6001809054906101000a900473ffffffffffffffffffffffffffffffffffffffff1673ffffffffffffffffffffffffffffffffffffffff163373ffffffffffffffffffffffffffffffffffffffff161415156126a0576040517f08c379a00000000000000000000000000000000000000000000000000000000081526004018080602001828103825260268152602001807f4f6e6c79207468652061646d696e2063616e2063616c6c20746869732066756e81526020017f6374696f6e2e000000000000000000000000000000000000000000000000000081525060400191505060405180910390fd5b6126a9816133d8565b151561271d576040517f08c379a00000000000000000000000000000000000000000000000000000000081526004018080602001828103825260138152602001807f54686520636974697a656e20697320646561640000000000000000000000000081525060200191505060405180910390fd5b6000600460008363ffffffff1663ffffffff16815260200190815260200160002060000160006101000a81548160ff021916908315150217905550600260008154809291906001900391905055507f7976ef10e39b537b6b7bf18a514496054d3a3a7763467d5f668d08dfa48228b681604051808263ffffffff1663ffffffff16815260200191505060405180910390a150565b6001809054906101000a900473ffffffffffffffffffffffffffffffffffffffff1673ffffffffffffffffffffffffffffffffffffffff163373ffffffffffffffffffffffffffffffffffffffff1614151561289b576040517f08c379a00000000000000000000000000000000000000000000000000000000081526004018080602001828103825260268152602001807f4f6e6c79207468652061646d696e2063616e2063616c6c20746869732066756e81526020017f6374696f6e2e000000000000000000000000000000000000000000000000000081525060400191505060405180910390fd5b60008160ff16101580156128b2575060048160ff16105b1515612926576040517f08c379a00000000000000000000000000000000000000000000000000000000081526004018080602001828103825260148152602001807f526f6c65206e6f7420696e20746865206c69737400000000000000000000000081525060200191505060405180910390fd5b61293082826134b0565b5050565b61293c613687565b336040805190810160405280600160ff168152602001600360ff1681525060008060009150600090505b60028160ff1610156129ac5761299184848360ff1660028110151561298757fe5b60200201516132b6565b1561299f57600191506129ac565b8080600101915050612966565b8115156129b857600080fd5b6129c1886133d8565b1515612a35576040517f08c379a00000000000000000000000000000000000000000000000000000000081526004018080602001828103825260138152602001807f54686520636974697a656e20697320646561640000000000000000000000000081525060200191505060405180910390fd5b868560000190600019169081600019168152505085856020019060001916908160001916815250507f747275650000000000000000000000000000000000000000000000000000000085604001906000191690816000191681525050600660008963ffffffff1663ffffffff16815260200190815260200160002060000185908060018154018082558091505090600182039060005260206000209060030201600090919290919091506000820151816000019060001916905560208201518160010190600019169055604082015181600201906000191690555050505050505050505050565b6000612b2883836132b6565b905092915050565b6000336040805190810160405280600260ff168152602001600360ff1681525060008060009150600090505b60028160ff161015612ba257612b8784848360ff16600281101515612b7d57fe5b60200201516132b6565b15612b955760019150612ba2565b8080600101915050612b5c565b811515612bae57600080fd5b612bb7866132ea565b1515612c2b576040517f08c379a00000000000000000000000000000000000000000000000000000000081526004018080602001828103825260198152602001807f5468652049442069742773206e6f7420617661696c61626c650000000000000081525060200191505060405180910390fd5b600560008763ffffffff1663ffffffff16815260200190815260200160002060000180549050945050505050919050565b6000606080600460008563ffffffff1663ffffffff16815260200190815260200160002060080160009054906101000a900463ffffffff16600460008663ffffffff1663ffffffff168152602001908152602001600020600101600460008763ffffffff1663ffffffff168152602001908152602001600020600201818054600181600116156101000203166002900480601f016020809104026020016040519081016040528092919081815260200182805460018160011615610100020316600290048015612d6d5780601f10612d4257610100808354040283529160200191612d6d565b820191906000526020600020905b815481529060010190602001808311612d5057829003601f168201915b50505050509150808054600181600116156101000203166002900480601f016020809104026020016040519081016040528092919081815260200182805460018160011615610100020316600290048015612e095780601f10612dde57610100808354040283529160200191612e09565b820191906000526020600020905b815481529060010190602001808311612dec57829003601f168201915b505050505090509250925092509193909250565b6000336040805190810160405280600160ff168152602001600360ff1681525060008060009150600090505b60028160ff161015612e8f57612e7484848360ff16600281101515612e6a57fe5b60200201516132b6565b15612e825760019150612e8f565b8080600101915050612e49565b811515612e9b57600080fd5b612ea4866132ea565b1515612f18576040517f08c379a00000000000000000000000000000000000000000000000000000000081526004018080602001828103825260198152602001807f5468652049442069742773206e6f7420617661696c61626c650000000000000081525060200191505060405180910390fd5b600660008763ffffffff1663ffffffff16815260200190815260200160002060000180549050945050505050919050565b60006060806060806000600460008863ffffffff1663ffffffff16815260200190815260200160002060080160009054906101000a900463ffffffff16600460008963ffffffff1663ffffffff168152602001908152602001600020600101600460008a63ffffffff1663ffffffff168152602001908152602001600020600301600460008b63ffffffff1663ffffffff168152602001908152602001600020600401600460008c63ffffffff1663ffffffff168152602001908152602001600020600501600460008d63ffffffff1663ffffffff16815260200190815260200160002060090154848054600181600116156101000203166002900480601f0160208091040260200160405190810160405280929190818152602001828054600181600116156101000203166002900480156130c65780601f1061309b576101008083540402835291602001916130c6565b820191906000526020600020905b8154815290600101906020018083116130a957829003601f168201915b50505050509450838054600181600116156101000203166002900480601f0160208091040260200160405190810160405280929190818152602001828054600181600116156101000203166002900480156131625780601f1061313757610100808354040283529160200191613162565b820191906000526020600020905b81548152906001019060200180831161314557829003601f168201915b50505050509350828054600181600116156101000203166002900480601f0160208091040260200160405190810160405280929190818152602001828054600181600116156101000203166002900480156131fe5780601f106131d3576101008083540402835291602001916131fe565b820191906000526020600020905b8154815290600101906020018083116131e157829003601f168201915b50505050509250818054600181600116156101000203166002900480601f01602080910402602001604051908101604052809291908181526020018280546001816001161561010002031660029004801561329a5780601f1061326f5761010080835404028352916020019161329a565b820191906000526020600020905b81548152906001019060200180831161327d57829003601f168201915b5050505050915095509550955095509550955091939550919395565b60006132e2836000808560ff1660ff16815260200190815260200160002061354f90919063ffffffff16565b905092915050565b600080600460008463ffffffff1663ffffffff16815260200190815260200160002060080160009054906101000a900463ffffffff1663ffffffff16149050919050565b613336613664565b6000826000015181600060038110151561334c57fe5b018160001916905550826020015181600160038110151561336957fe5b018160001916905550826040015181600260038110151561338657fe5b018160001916905550806003806020026040519081016040528092919082600380156133cb576020028201915b815460001916815260200190600101908083116133b3575b5050505050915050919050565b6000600460008363ffffffff1663ffffffff16815260200190815260200160002060000160009054906101000a900460ff169050919050565b61343b826000808460ff1660ff1681526020019081526020016000206135a890919063ffffffff16565b7f0ed8a6a6a166243876472f7a8610b62c1a76c67911642d39ff34ead38105534f8282604051808373ffffffffffffffffffffffffffffffffffffffff1673ffffffffffffffffffffffffffffffffffffffff1681526020018260ff1660ff1681526020019250505060405180910390a15050565b6134da826000808460ff1660ff16815260200190815260200160002061360690919063ffffffff16565b7f3824b64a1e23d936b458f4e31445c664d2bc9c14e842407917cbc100b0236a2f8282604051808373ffffffffffffffffffffffffffffffffffffffff1673ffffffffffffffffffffffffffffffffffffffff1681526020018260ff1660ff1681526020019250505060405180910390a15050565b60008260000160008373ffffffffffffffffffffffffffffffffffffffff1673ffffffffffffffffffffffffffffffffffffffff16815260200190815260200160002060009054906101000a900460ff16905092915050565b60018260000160008373ffffffffffffffffffffffffffffffffffffffff1673ffffffffffffffffffffffffffffffffffffffff16815260200190815260200160002060006101000a81548160ff0219169083151502179055505050565b60008260000160008373ffffffffffffffffffffffffffffffffffffffff1673ffffffffffffffffffffffffffffffffffffffff16815260200190815260200160002060006101000a81548160ff0219169083151502179055505050565b606060405190810160405280600390602082028038833980820191505090505090565b6060604051908101604052806000801916815260200160008019168152602001600080191681525090565b828054600181600116156101000203166002900490600052602060002090601f016020900481019282601f106136f357805160ff1916838001178555613721565b82800160010185558215613721579182015b82811115613720578251825591602001919060010190613705565b5b50905061372e9190613811565b5090565b6101406040519081016040528060001515815260200160608152602001606081526020016060815260200160608152602001606081526020016060815260200160608152602001600063ffffffff168152602001600080191681525090565b828054600181600116156101000203166002900490600052602060002090601f016020900481019282601f106137d257805160ff1916838001178555613800565b82800160010185558215613800579182015b828111156137ff5782518255916020019190600101906137e4565b5b50905061380d9190613811565b5090565b61383391905b8082111561382f576000816000905550600101613817565b5090565b905600a165627a7a723058203d738dfba44c2f80cccb3d4381edd73e7af009bb81558e1fd3685f9af0cb76e90029",
  "source": "pragma solidity ^0.4.21;\n\nimport \"./RBAC-SM.sol\";\n\n\ncontract CitizensRecord is RBAC {\n    bool public status;\n    address admin;\n    uint public numberOfActiveUsers;\n    uint32 nextId;\n\n    mapping(uint32 => Citizen) citizensStorage;\n    mapping(uint32 => ClinicRecords) clinicStorage;\n    mapping(uint32 => LegalRecords) legalStorage;\n\n    struct Citizen {\n        bool alive;\n        string name;\n        string lastName;\n        string birthDate;\n        string gender;\n        string nacionality;\n        string residence;\n        string city;\n        uint32 ID;\n        bytes32 image;\n    }\n\n    struct ClinicRecords {\n        Register[] records;\n    }\n\n    struct LegalRecords {\n        Register[] records;\n    }\n\n    struct Register {\n        bytes32 record;\n        bytes32 date;\n        bytes32 valid;\n    }\n\n    event UserAdded(uint32 ID);\n    event UserRemoved(uint32 ID);\n    event StatusChanged(bool Status);\n\n    constructor() public {\n        admin = msg.sender;\n        addRole(msg.sender, 3);\n    }\n\n    modifier onlyAdmin() {\n        require(\n            msg.sender == admin,\n            \"Only the admin can call this function.\"\n        );\n        _;\n    }\n\n    function is_available(uint32 _ID) private view returns (bool){\n        return citizensStorage[_ID].ID == 0;\n    }\n\n    function isAlive(uint32 _ID) private view returns (bool){\n        return citizensStorage[_ID].alive;\n    }\n\n    function register_citizen(\n        string _name,\n        string _lastName,\n        string _birthDate,\n        string _gender,\n        string _nacionality,\n        string _residence,\n        string _city,\n        uint32 _ID,\n        bytes32 _image) public onlyAdmin {\n\n        require(is_available(_ID), \"The ID it's not available\");\n\n        Citizen memory citizen;\n\n        citizen.name = _name;\n        citizen.lastName = _lastName;\n        citizen.birthDate = _birthDate;\n        citizen.gender = _gender;\n        citizen.nacionality = _nacionality;\n        citizen.residence = _residence;\n        citizen.city = _city;\n        citizen.ID = _ID;\n        citizen.image = _image;\n        citizen.alive = true;\n\n        citizensStorage[_ID] = citizen;\n        numberOfActiveUsers++;\n        emit UserAdded(_ID);\n    }\n\n    function modofy_citizen(\n        string _name,\n        string _lastName,\n        string _birthDate,\n        string _gender,\n        string _nacionality,\n        string _residence,\n        string _city,\n        uint32 _ID,\n        bytes32 _image) public onlyAdmin {\n\n        require(!is_available(_ID), \"there is no one with this ID\");\n\n        Citizen storage citizen = citizensStorage[_ID];\n\n        citizen.name = _name;\n        citizen.lastName = _lastName;\n        citizen.birthDate = _birthDate;\n        citizen.gender = _gender;\n        citizen.nacionality = _nacionality;\n        citizen.residence = _residence;\n        citizen.city = _city;\n        citizen.ID = _ID;\n        citizen.image = _image;\n        citizen.alive = true;\n    }\n\n    function removeUser(uint32 ID) public onlyAdmin {\n        require(isAlive(ID), 'The citizen is dead');\n\n        citizensStorage[ID].alive = false;\n        numberOfActiveUsers--;\n        emit UserRemoved(ID);\n    }\n\n    function registerClinicRecord(\n        uint32 ID,\n        bytes32 record,\n        bytes32 date\n    ) public onlyRoles(msg.sender, [2, 3]) {\n        require(isAlive(ID), 'The citizen is dead');\n\n        Register memory reg;\n        reg.record = record;\n        reg.date = date;\n        reg.valid = 'true';\n\n        clinicStorage[ID].records.push(reg);\n    }\n\n    function registerLegalRecord(\n        uint32 ID,\n        bytes32 record,\n        bytes32 date\n    ) public onlyRoles(msg.sender, [1, 3]) {\n        require(isAlive(ID), 'The citizen is dead');\n\n        Register memory reg;\n        reg.record = record;\n        reg.date = date;\n        reg.valid = 'true';\n\n        legalStorage[ID].records.push(reg);\n    }\n\n    function deleteClinicRecord(\n        uint32 ID,\n        uint32 recordPosition\n    ) public onlyRoles(msg.sender, [2, 3]) {\n        require(isAlive(ID), 'The citizen is dead');\n        require(clinicStorage[ID].records[recordPosition].valid == 'true', \"The incident does not exist\");\n\n        clinicStorage[ID].records[recordPosition].valid = 'false';\n    }\n\n    function deleteLegalRecord(\n        uint32 ID,\n        uint32 recordPosition\n    ) public onlyRoles(msg.sender, [1, 3]) {\n        require(isAlive(ID), 'The citizen is dead');\n        require(legalStorage[ID].records[recordPosition].valid == 'true', \"The incident does not exist\");\n\n        legalStorage[ID].records[recordPosition].valid = 'false';\n    }\n\n    function getRegister(Register r) private returns (bytes32[3]) {\n        bytes32[3] res;\n        res[0] = r.record;\n        res[1] = r.date;\n        res[2] = r.valid;\n        return res;\n    }\n\n    function getNumberClinicRecords(uint32 ID) public view onlyRoles(msg.sender, [2, 3]) returns (uint) {\n        require(is_available(ID), \"The ID it's not available\");\n        return clinicStorage[ID].records.length;\n    }\n\n    function getNumberLegalRecords(uint32 ID) public view onlyRoles(msg.sender, [1, 3]) returns (uint) {\n        require(is_available(ID), \"The ID it's not available\");\n        return legalStorage[ID].records.length;\n    }\n\n    function getClinicRecords(\n        uint32 ID,\n        uint32 position\n    ) public onlyRoles(msg.sender, [2, 3]) returns (bytes32[3]) {\n        require(is_available(ID), \"The ID it's not available\");\n        return getRegister(clinicStorage[ID].records[position]);\n    }\n\n    function getLegalRecords(\n        uint32 ID,\n        uint32 position\n    ) public onlyRoles(msg.sender, [1, 3]) returns (bytes32[3]) {\n        require(is_available(ID), \"The ID it's not available\");\n        return getRegister(legalStorage[ID].records[position]);\n    }\n\n\n    function addRole(address addr, uint8 roleNumber) public onlyAdmin {\n        require(roleNumber >= 0 && roleNumber < 4, 'Role not in the list');\n        giveRole(addr, roleNumber);\n    }\n\n    function removeRole(address addr, uint8 roleNumber) public onlyAdmin {\n        require(roleNumber >= 0 && roleNumber < 4, 'Role not in the list');\n        takeAwayRole(addr, roleNumber);\n    }\n\n    function hasSpecificRole(address addr, uint8 roleName) public view returns (bool) {\n        return hasRole(addr, roleName);\n    }\n\n\n\n\n    function changeStatus(bool st) public onlyAdmin {\n        status = st;\n        emit StatusChanged(st);\n    }\n\n    function get_name(uint32 _ID) public view returns (uint32, string, string) {\n\n        return (citizensStorage[_ID].ID, citizensStorage[_ID].name, citizensStorage[_ID].lastName);\n    }\n\n    function get_residency(uint32 _ID) public view returns (uint32, string, string, string, string) {\n\n        return (citizensStorage[_ID].ID, citizensStorage[_ID].name, citizensStorage[_ID].nacionality, citizensStorage[_ID].residence, citizensStorage[_ID].city);\n    }\n\n    function get_basic_info(uint32 _ID) public view returns (uint32, string, string, string, string, bytes32) {\n\n        return (citizensStorage[_ID].ID, citizensStorage[_ID].name, citizensStorage[_ID].birthDate, citizensStorage[_ID].gender, citizensStorage[_ID].nacionality, citizensStorage[_ID].image);\n    }\n\n    function view_president_address() public view returns (address) {\n        return admin;\n    }\n\n}\n",
  "sourcePath": "/home/a/IdeaProjects/FIB-PTI-ID-of-the-future-using-blockchain/smartContract/contracts/CitizensRecord.sol",
  "compiler": {
    "name": "solc",
    "version": "0.4.24+commit.e67f0147.Emscripten.clang"
  },
  "schemaVersion": "2.0.1",
  "updatedAt": "2018-12-02T01:37:17.604Z"
}