{
  "contractName": "CitizensRecord",
  "abi": [
    {
      "constant": true,
      "inputs": [],
      "name": "status",
      "outputs": [
        {
          "name": "",
          "type": "bool"
        }
      ],
      "payable": false,
      "stateMutability": "view",
      "type": "function"
    },
    {
      "constant": true,
      "inputs": [],
      "name": "numberOfActiveUsers",
      "outputs": [
        {
          "name": "",
          "type": "uint256"
        }
      ],
      "payable": false,
      "stateMutability": "view",
      "type": "function"
    },
    {
      "inputs": [],
      "payable": false,
      "stateMutability": "nonpayable",
      "type": "constructor"
    },
    {
      "anonymous": false,
      "inputs": [
        {
          "indexed": false,
          "name": "ID",
          "type": "uint32"
        }
      ],
      "name": "UserAdded",
      "type": "event"
    },
    {
      "anonymous": false,
      "inputs": [
        {
          "indexed": false,
          "name": "ID",
          "type": "uint32"
        }
      ],
      "name": "UserRemoved",
      "type": "event"
    },
    {
      "anonymous": false,
      "inputs": [
        {
          "indexed": false,
          "name": "Status",
          "type": "bool"
        }
      ],
      "name": "StatusChanged",
      "type": "event"
    },
    {
      "anonymous": false,
      "inputs": [
        {
          "indexed": false,
          "name": "record",
          "type": "bytes32"
        },
        {
          "indexed": false,
          "name": "date",
          "type": "bytes32"
        },
        {
          "indexed": false,
          "name": "valid",
          "type": "bool"
        }
      ],
      "name": "SendRegister",
      "type": "event"
    },
    {
      "anonymous": false,
      "inputs": [
        {
          "indexed": false,
          "name": "addr",
          "type": "address"
        },
        {
          "indexed": false,
          "name": "roleName",
          "type": "uint8"
        }
      ],
      "name": "RoleAdded",
      "type": "event"
    },
    {
      "anonymous": false,
      "inputs": [
        {
          "indexed": false,
          "name": "addr",
          "type": "address"
        },
        {
          "indexed": false,
          "name": "roleName",
          "type": "uint8"
        }
      ],
      "name": "RoleRemoved",
      "type": "event"
    },
    {
      "constant": false,
      "inputs": [
        {
          "name": "_name",
          "type": "string"
        },
        {
          "name": "_lastName",
          "type": "string"
        },
        {
          "name": "_birthDate",
          "type": "string"
        },
        {
          "name": "_gender",
          "type": "string"
        },
        {
          "name": "_nacionality",
          "type": "string"
        },
        {
          "name": "_residence",
          "type": "string"
        },
        {
          "name": "_city",
          "type": "string"
        },
        {
          "name": "_ID",
          "type": "uint32"
        },
        {
          "name": "_image",
          "type": "bytes32"
        }
      ],
      "name": "register_citizen",
      "outputs": [],
      "payable": false,
      "stateMutability": "nonpayable",
      "type": "function"
    },
    {
      "constant": false,
      "inputs": [
        {
          "name": "_name",
          "type": "string"
        },
        {
          "name": "_lastName",
          "type": "string"
        },
        {
          "name": "_birthDate",
          "type": "string"
        },
        {
          "name": "_gender",
          "type": "string"
        },
        {
          "name": "_nacionality",
          "type": "string"
        },
        {
          "name": "_residence",
          "type": "string"
        },
        {
          "name": "_city",
          "type": "string"
        },
        {
          "name": "_ID",
          "type": "uint32"
        },
        {
          "name": "_image",
          "type": "bytes32"
        }
      ],
      "name": "modify_citizen",
      "outputs": [],
      "payable": false,
      "stateMutability": "nonpayable",
      "type": "function"
    },
    {
      "constant": false,
      "inputs": [
        {
          "name": "ID",
          "type": "uint32"
        }
      ],
      "name": "removeUser",
      "outputs": [],
      "payable": false,
      "stateMutability": "nonpayable",
      "type": "function"
    },
    {
      "constant": false,
      "inputs": [
        {
          "name": "ID",
          "type": "uint32"
        },
        {
          "name": "record",
          "type": "bytes32"
        },
        {
          "name": "date",
          "type": "bytes32"
        }
      ],
      "name": "registerClinicRecord",
      "outputs": [],
      "payable": false,
      "stateMutability": "nonpayable",
      "type": "function"
    },
    {
      "constant": false,
      "inputs": [
        {
          "name": "ID",
          "type": "uint32"
        },
        {
          "name": "record",
          "type": "bytes32"
        },
        {
          "name": "date",
          "type": "bytes32"
        }
      ],
      "name": "registerLegalRecord",
      "outputs": [],
      "payable": false,
      "stateMutability": "nonpayable",
      "type": "function"
    },
    {
      "constant": false,
      "inputs": [
        {
          "name": "ID",
          "type": "uint32"
        },
        {
          "name": "recordPosition",
          "type": "uint32"
        }
      ],
      "name": "deleteClinicRecord",
      "outputs": [],
      "payable": false,
      "stateMutability": "nonpayable",
      "type": "function"
    },
    {
      "constant": false,
      "inputs": [
        {
          "name": "ID",
          "type": "uint32"
        },
        {
          "name": "recordPosition",
          "type": "uint32"
        }
      ],
      "name": "deleteLegalRecord",
      "outputs": [],
      "payable": false,
      "stateMutability": "nonpayable",
      "type": "function"
    },
    {
      "constant": true,
      "inputs": [
        {
          "name": "ID",
          "type": "uint32"
        }
      ],
      "name": "getNumberClinicRecords",
      "outputs": [
        {
          "name": "",
          "type": "uint256"
        }
      ],
      "payable": false,
      "stateMutability": "view",
      "type": "function"
    },
    {
      "constant": true,
      "inputs": [
        {
          "name": "ID",
          "type": "uint32"
        }
      ],
      "name": "getNumberLegalRecords",
      "outputs": [
        {
          "name": "",
          "type": "uint256"
        }
      ],
      "payable": false,
      "stateMutability": "view",
      "type": "function"
    },
    {
      "constant": false,
      "inputs": [
        {
          "name": "ID",
          "type": "uint32"
        },
        {
          "name": "position",
          "type": "uint32"
        }
      ],
      "name": "getClinicRecords",
      "outputs": [
        {
          "name": "",
          "type": "bytes32"
        },
        {
          "name": "",
          "type": "bytes32"
        },
        {
          "name": "",
          "type": "bool"
        }
      ],
      "payable": false,
      "stateMutability": "nonpayable",
      "type": "function"
    },
    {
      "constant": false,
      "inputs": [
        {
          "name": "ID",
          "type": "uint32"
        },
        {
          "name": "position",
          "type": "uint32"
        }
      ],
      "name": "getLegalRecords",
      "outputs": [
        {
          "name": "",
          "type": "bytes32"
        },
        {
          "name": "",
          "type": "bytes32"
        },
        {
          "name": "",
          "type": "bool"
        }
      ],
      "payable": false,
      "stateMutability": "nonpayable",
      "type": "function"
    },
    {
      "constant": false,
      "inputs": [
        {
          "name": "addr",
          "type": "address"
        },
        {
          "name": "roleNumber",
          "type": "uint8"
        }
      ],
      "name": "addRole",
      "outputs": [],
      "payable": false,
      "stateMutability": "nonpayable",
      "type": "function"
    },
    {
      "constant": false,
      "inputs": [
        {
          "name": "addr",
          "type": "address"
        },
        {
          "name": "roleNumber",
          "type": "uint8"
        }
      ],
      "name": "removeRole",
      "outputs": [],
      "payable": false,
      "stateMutability": "nonpayable",
      "type": "function"
    },
    {
      "constant": true,
      "inputs": [
        {
          "name": "addr",
          "type": "address"
        },
        {
          "name": "roleName",
          "type": "uint8"
        }
      ],
      "name": "hasSpecificRole",
      "outputs": [
        {
          "name": "",
          "type": "bool"
        }
      ],
      "payable": false,
      "stateMutability": "view",
      "type": "function"
    },
    {
      "constant": false,
      "inputs": [
        {
          "name": "st",
          "type": "bool"
        }
      ],
      "name": "changeStatus",
      "outputs": [],
      "payable": false,
      "stateMutability": "nonpayable",
      "type": "function"
    },
    {
      "constant": true,
      "inputs": [
        {
          "name": "_ID",
          "type": "uint32"
        }
      ],
      "name": "get_name",
      "outputs": [
        {
          "name": "",
          "type": "uint32"
        },
        {
          "name": "",
          "type": "string"
        },
        {
          "name": "",
          "type": "string"
        }
      ],
      "payable": false,
      "stateMutability": "view",
      "type": "function"
    },
    {
      "constant": true,
      "inputs": [
        {
          "name": "_ID",
          "type": "uint32"
        }
      ],
      "name": "get_residency",
      "outputs": [
        {
          "name": "",
          "type": "uint32"
        },
        {
          "name": "",
          "type": "string"
        },
        {
          "name": "",
          "type": "string"
        },
        {
          "name": "",
          "type": "string"
        },
        {
          "name": "",
          "type": "string"
        }
      ],
      "payable": false,
      "stateMutability": "view",
      "type": "function"
    },
    {
      "constant": true,
      "inputs": [
        {
          "name": "_ID",
          "type": "uint32"
        }
      ],
      "name": "get_basic_info",
      "outputs": [
        {
          "name": "",
          "type": "uint32"
        },
        {
          "name": "",
          "type": "string"
        },
        {
          "name": "",
          "type": "string"
        },
        {
          "name": "",
          "type": "string"
        },
        {
          "name": "",
          "type": "string"
        },
        {
          "name": "",
          "type": "bytes32"
        },
        {
          "name": "",
          "type": "bool"
        }
      ],
      "payable": false,
      "stateMutability": "view",
      "type": "function"
    },
    {
      "constant": true,
      "inputs": [],
      "name": "view_president_address",
      "outputs": [
        {
          "name": "",
          "type": "address"
        }
      ],
      "payable": false,
      "stateMutability": "view",
      "type": "function"
    }
  ],
  "bytecode": "0x60806040523480156200001157600080fd5b50336001806101000a81548173ffffffffffffffffffffffffffffffffffffffff021916908373ffffffffffffffffffffffffffffffffffffffff1602179055506200006e33600362000074640100000000026401000000009004565b62000318565b6001809054906101000a900473ffffffffffffffffffffffffffffffffffffffff1673ffffffffffffffffffffffffffffffffffffffff163373ffffffffffffffffffffffffffffffffffffffff161415156200015f576040517f08c379a00000000000000000000000000000000000000000000000000000000081526004018080602001828103825260268152602001807f4f6e6c79207468652061646d696e2063616e2063616c6c20746869732066756e81526020017f6374696f6e2e000000000000000000000000000000000000000000000000000081525060400191505060405180910390fd5b60008160ff161015801562000177575060048160ff16105b1515620001ec576040517f08c379a00000000000000000000000000000000000000000000000000000000081526004018080602001828103825260148152602001807f526f6c65206e6f7420696e20746865206c69737400000000000000000000000081525060200191505060405180910390fd5b6200020782826200020b640100000000026401000000009004565b5050565b62000245826000808460ff1660ff168152602001908152602001600020620002ba6401000000000262003561179091906401000000009004565b7f0ed8a6a6a166243876472f7a8610b62c1a76c67911642d39ff34ead38105534f8282604051808373ffffffffffffffffffffffffffffffffffffffff1673ffffffffffffffffffffffffffffffffffffffff1681526020018260ff1660ff1681526020019250505060405180910390a15050565b60018260000160008373ffffffffffffffffffffffffffffffffffffffff1673ffffffffffffffffffffffffffffffffffffffff16815260200190815260200160002060006101000a81548160ff0219169083151502179055505050565b6137f780620003286000396000f30060806040526004361061011d576000357c0100000000000000000000000000000000000000000000000000000000900463ffffffff16806301801f0a1461012257806312cb7b911461019b578063200d2ed2146101de57806328b891ae1461020d5780633bb1eb471461028657806344deb6f3146102dd5780634c6a6b3b1461032d5780636ceed0e8146105585780638effb9cc146105a75780639b3de49b146105ea5780639f13058c14610619578063abc203991461081c578063af1db4dd14610a47578063b578e59d14610a72578063b74866fb14610aa5578063c1c203f114610af5578063cb46845414610b44578063cc96abbc14610bac578063ce894e6614610bf3578063dbf66fbc14610d1e578063ddbda39714610d65575b600080fd5b34801561012e57600080fd5b50610163600480360381019080803563ffffffff169060200190929190803563ffffffff169060200190929190505050610f82565b604051808460001916600019168152602001836000191660001916815260200182151515158152602001935050505060405180910390f35b3480156101a757600080fd5b506101dc600480360381019080803563ffffffff169060200190929190803563ffffffff169060200190929190505050611169565b005b3480156101ea57600080fd5b506101f3611391565b604051808215151515815260200191505060405180910390f35b34801561021957600080fd5b5061024e600480360381019080803563ffffffff169060200190929190803563ffffffff1690602001909291905050506113a4565b604051808460001916600019168152602001836000191660001916815260200182151515158152602001935050505060405180910390f35b34801561029257600080fd5b5061029b61158b565b604051808273ffffffffffffffffffffffffffffffffffffffff1673ffffffffffffffffffffffffffffffffffffffff16815260200191505060405180910390f35b3480156102e957600080fd5b5061032b600480360381019080803573ffffffffffffffffffffffffffffffffffffffff169060200190929190803560ff1690602001909291905050506115b4565b005b34801561033957600080fd5b50610556600480360381019080803590602001908201803590602001908080601f0160208091040260200160405190810160405280939291908181526020018383808284378201915050505050509192919290803590602001908201803590602001908080601f0160208091040260200160405190810160405280939291908181526020018383808284378201915050505050509192919290803590602001908201803590602001908080601f0160208091040260200160405190810160405280939291908181526020018383808284378201915050505050509192919290803590602001908201803590602001908080601f0160208091040260200160405190810160405280939291908181526020018383808284378201915050505050509192919290803590602001908201803590602001908080601f0160208091040260200160405190810160405280939291908181526020018383808284378201915050505050509192919290803590602001908201803590602001908080601f0160208091040260200160405190810160405280939291908181526020018383808284378201915050505050509192919290803590602001908201803590602001908080601f0160208091040260200160405190810160405280939291908181526020018383808284378201915050505050509192919290803563ffffffff1690602001909291908035600019169060200190929190505050611737565b005b34801561056457600080fd5b506105a5600480360381019080803563ffffffff169060200190929190803560001916906020019092919080356000191690602001909291905050506119ca565b005b3480156105b357600080fd5b506105e8600480360381019080803563ffffffff169060200190929190803563ffffffff169060200190929190505050611ba5565b005b3480156105f657600080fd5b50610617600480360381019080803515159060200190929190505050611dcd565b005b34801561062557600080fd5b5061064a600480360381019080803563ffffffff169060200190929190505050611f0f565b604051808663ffffffff1663ffffffff16815260200180602001806020018060200180602001858103855289818151815260200191508051906020019080838360005b838110156106a857808201518184015260208101905061068d565b50505050905090810190601f1680156106d55780820380516001836020036101000a031916815260200191505b50858103845288818151815260200191508051906020019080838360005b8381101561070e5780820151818401526020810190506106f3565b50505050905090810190601f16801561073b5780820380516001836020036101000a031916815260200191505b50858103835287818151815260200191508051906020019080838360005b83811015610774578082015181840152602081019050610759565b50505050905090810190601f1680156107a15780820380516001836020036101000a031916815260200191505b50858103825286818151815260200191508051906020019080838360005b838110156107da5780820151818401526020810190506107bf565b50505050905090810190601f1680156108075780820380516001836020036101000a031916815260200191505b50995050505050505050505060405180910390f35b34801561082857600080fd5b50610a45600480360381019080803590602001908201803590602001908080601f0160208091040260200160405190810160405280939291908181526020018383808284378201915050505050509192919290803590602001908201803590602001908080601f0160208091040260200160405190810160405280939291908181526020018383808284378201915050505050509192919290803590602001908201803590602001908080601f0160208091040260200160405190810160405280939291908181526020018383808284378201915050505050509192919290803590602001908201803590602001908080601f0160208091040260200160405190810160405280939291908181526020018383808284378201915050505050509192919290803590602001908201803590602001908080601f0160208091040260200160405190810160405280939291908181526020018383808284378201915050505050509192919290803590602001908201803590602001908080601f0160208091040260200160405190810160405280939291908181526020018383808284378201915050505050509192919290803590602001908201803590602001908080601f0160208091040260200160405190810160405280939291908181526020018383808284378201915050505050509192919290803563ffffffff1690602001909291908035600019169060200190929190505050612255565b005b348015610a5357600080fd5b50610a5c6125ea565b6040518082815260200191505060405180910390f35b348015610a7e57600080fd5b50610aa3600480360381019080803563ffffffff1690602001909291905050506125f0565b005b348015610ab157600080fd5b50610af3600480360381019080803573ffffffffffffffffffffffffffffffffffffffff169060200190929190803560ff1690602001909291905050506127eb565b005b348015610b0157600080fd5b50610b42600480360381019080803563ffffffff1690602001909291908035600019169060200190929190803560001916906020019092919050505061296e565b005b348015610b5057600080fd5b50610b92600480360381019080803573ffffffffffffffffffffffffffffffffffffffff169060200190929190803560ff169060200190929190505050612b49565b604051808215151515815260200191505060405180910390f35b348015610bb857600080fd5b50610bdd600480360381019080803563ffffffff169060200190929190505050612b5d565b6040518082815260200191505060405180910390f35b348015610bff57600080fd5b50610c24600480360381019080803563ffffffff169060200190929190505050612c89565b604051808463ffffffff1663ffffffff1681526020018060200180602001838103835285818151815260200191508051906020019080838360005b83811015610c7a578082015181840152602081019050610c5f565b50505050905090810190601f168015610ca75780820380516001836020036101000a031916815260200191505b50838103825284818151815260200191508051906020019080838360005b83811015610ce0578082015181840152602081019050610cc5565b50505050905090810190601f168015610d0d5780820380516001836020036101000a031916815260200191505b509550505050505060405180910390f35b348015610d2a57600080fd5b50610d4f600480360381019080803563ffffffff169060200190929190505050612e4a565b6040518082815260200191505060405180910390f35b348015610d7157600080fd5b50610d96600480360381019080803563ffffffff169060200190929190505050612f77565b604051808863ffffffff1663ffffffff1681526020018060200180602001806020018060200187600019166000191681526020018615151515815260200185810385528b818151815260200191508051906020019080838360005b83811015610e0c578082015181840152602081019050610df1565b50505050905090810190601f168015610e395780820380516001836020036101000a031916815260200191505b5085810384528a818151815260200191508051906020019080838360005b83811015610e72578082015181840152602081019050610e57565b50505050905090810190601f168015610e9f5780820380516001836020036101000a031916815260200191505b50858103835289818151815260200191508051906020019080838360005b83811015610ed8578082015181840152602081019050610ebd565b50505050905090810190601f168015610f055780820380516001836020036101000a031916815260200191505b50858103825288818151815260200191508051906020019080838360005b83811015610f3e578082015181840152602081019050610f23565b50505050905090810190601f168015610f6b5780820380516001836020036101000a031916815260200191505b509b50505050505050505050505060405180910390f35b600080600080336040805190810160405280600160ff168152602001600360ff1681525060008060009150600090505b60028160ff161015610ff857610fdd84848360ff16600281101515610fd357fe5b6020020151613319565b15610feb5760019150610ff8565b8080600101915050610fb2565b81151561100457600080fd5b61100d8a61334d565b151515611082576040517f08c379a00000000000000000000000000000000000000000000000000000000081526004018080602001828103825260198152602001807f5468652049442069742773206e6f7420617661696c61626c650000000000000081525060200191505060405180910390fd5b600660008b63ffffffff1663ffffffff1681526020019081526020016000206000018963ffffffff168154811015156110b757fe5b906000526020600020906003020194507ff62f6ac951f5b4b07121655e44c2f1fcfe3402649cffffc3ce84ec3ca2641d10856000015486600101548760020160009054906101000a900460ff16604051808460001916600019168152602001836000191660001916815260200182151515158152602001935050505060405180910390a1846000015485600101548660020160009054906101000a900460ff1697509750975050505050509250925092565b336040805190810160405280600260ff168152602001600360ff1681525060008060009150600090505b60028160ff1610156111d9576111be84848360ff166002811015156111b457fe5b6020020151613319565b156111cc57600191506111d9565b8080600101915050611193565b8115156111e557600080fd5b6111ee86613391565b1515611262576040517f08c379a00000000000000000000000000000000000000000000000000000000081526004018080602001828103825260138152602001807f54686520636974697a656e20697320646561640000000000000000000000000081525060200191505060405180910390fd5b600560008763ffffffff1663ffffffff1681526020019081526020016000206000018563ffffffff1681548110151561129757fe5b906000526020600020906003020160020160009054906101000a900460ff16151561132a576040517f08c379a000000000000000000000000000000000000000000000000000000000815260040180806020018281038252601b8152602001807f54686520696e636964656e7420646f6573206e6f74206578697374000000000081525060200191505060405180910390fd5b6000600560008863ffffffff1663ffffffff1681526020019081526020016000206000018663ffffffff1681548110151561136157fe5b906000526020600020906003020160020160006101000a81548160ff021916908315150217905550505050505050565b600160009054906101000a900460ff1681565b600080600080336040805190810160405280600260ff168152602001600360ff1681525060008060009150600090505b60028160ff16101561141a576113ff84848360ff166002811015156113f557fe5b6020020151613319565b1561140d576001915061141a565b80806001019150506113d4565b81151561142657600080fd5b61142f8a61334d565b1515156114a4576040517f08c379a00000000000000000000000000000000000000000000000000000000081526004018080602001828103825260198152602001807f5468652049442069742773206e6f7420617661696c61626c650000000000000081525060200191505060405180910390fd5b600560008b63ffffffff1663ffffffff1681526020019081526020016000206000018963ffffffff168154811015156114d957fe5b906000526020600020906003020194507ff62f6ac951f5b4b07121655e44c2f1fcfe3402649cffffc3ce84ec3ca2641d10856000015486600101548760020160009054906101000a900460ff16604051808460001916600019168152602001836000191660001916815260200182151515158152602001935050505060405180910390a1846000015485600101548660020160009054906101000a900460ff1697509750975050505050509250925092565b60006001809054906101000a900473ffffffffffffffffffffffffffffffffffffffff16905090565b6001809054906101000a900473ffffffffffffffffffffffffffffffffffffffff1673ffffffffffffffffffffffffffffffffffffffff163373ffffffffffffffffffffffffffffffffffffffff1614151561169e576040517f08c379a00000000000000000000000000000000000000000000000000000000081526004018080602001828103825260268152602001807f4f6e6c79207468652061646d696e2063616e2063616c6c20746869732066756e81526020017f6374696f6e2e000000000000000000000000000000000000000000000000000081525060400191505060405180910390fd5b60008160ff16101580156116b5575060048160ff16105b1515611729576040517f08c379a00000000000000000000000000000000000000000000000000000000081526004018080602001828103825260148152602001807f526f6c65206e6f7420696e20746865206c69737400000000000000000000000081525060200191505060405180910390fd5b61173382826133ca565b5050565b60006001809054906101000a900473ffffffffffffffffffffffffffffffffffffffff1673ffffffffffffffffffffffffffffffffffffffff163373ffffffffffffffffffffffffffffffffffffffff16141515611823576040517f08c379a00000000000000000000000000000000000000000000000000000000081526004018080602001828103825260268152602001807f4f6e6c79207468652061646d696e2063616e2063616c6c20746869732066756e81526020017f6374696f6e2e000000000000000000000000000000000000000000000000000081525060400191505060405180910390fd5b61182c8361334d565b1515156118a1576040517f08c379a000000000000000000000000000000000000000000000000000000000815260040180806020018281038252601c8152602001807f7468657265206973206e6f206f6e65207769746820746869732049440000000081525060200191505060405180910390fd5b600460008463ffffffff1663ffffffff1681526020019081526020016000209050898160010190805190602001906118da92919061361d565b50888160020190805190602001906118f392919061361d565b508781600301908051906020019061190c92919061361d565b508681600401908051906020019061192592919061361d565b508581600501908051906020019061193e92919061361d565b508481600601908051906020019061195792919061361d565b508381600701908051906020019061197092919061361d565b50828160080160006101000a81548163ffffffff021916908363ffffffff1602179055508181600901816000191690555060018160000160006101000a81548160ff02191690831515021790555050505050505050505050565b60006119d461369d565b336040805190810160405280600260ff168152602001600360ff1681525060008060009150600090505b60028160ff161015611a4457611a2984848360ff16600281101515611a1f57fe5b6020020151613319565b15611a375760019150611a44565b80806001019150506119fe565b811515611a5057600080fd5b611a5989613391565b1515611acd576040517f08c379a00000000000000000000000000000000000000000000000000000000081526004018080602001828103825260138152602001807f54686520636974697a656e20697320646561640000000000000000000000000081525060200191505060405180910390fd5b600660008a63ffffffff1663ffffffff1681526020019081526020016000206000019550878560000190600019169081600019168152505086856020019060001916908160001916815250506001856040019015159081151581525050858590806001815401808255809150509060018203906000526020600020906003020160009091929091909150600082015181600001906000191690556020820151816001019060001916905560408201518160020160006101000a81548160ff021916908315150217905550505050505050505050505050565b336040805190810160405280600160ff168152602001600360ff1681525060008060009150600090505b60028160ff161015611c1557611bfa84848360ff16600281101515611bf057fe5b6020020151613319565b15611c085760019150611c15565b8080600101915050611bcf565b811515611c2157600080fd5b611c2a86613391565b1515611c9e576040517f08c379a00000000000000000000000000000000000000000000000000000000081526004018080602001828103825260138152602001807f54686520636974697a656e20697320646561640000000000000000000000000081525060200191505060405180910390fd5b600660008763ffffffff1663ffffffff1681526020019081526020016000206000018563ffffffff16815481101515611cd357fe5b906000526020600020906003020160020160009054906101000a900460ff161515611d66576040517f08c379a000000000000000000000000000000000000000000000000000000000815260040180806020018281038252601b8152602001807f54686520696e636964656e7420646f6573206e6f74206578697374000000000081525060200191505060405180910390fd5b6000600660008863ffffffff1663ffffffff1681526020019081526020016000206000018663ffffffff16815481101515611d9d57fe5b906000526020600020906003020160020160006101000a81548160ff021916908315150217905550505050505050565b6001809054906101000a900473ffffffffffffffffffffffffffffffffffffffff1673ffffffffffffffffffffffffffffffffffffffff163373ffffffffffffffffffffffffffffffffffffffff16141515611eb7576040517f08c379a00000000000000000000000000000000000000000000000000000000081526004018080602001828103825260268152602001807f4f6e6c79207468652061646d696e2063616e2063616c6c20746869732066756e81526020017f6374696f6e2e000000000000000000000000000000000000000000000000000081525060400191505060405180910390fd5b80600160006101000a81548160ff0219169083151502179055507f4dcbe1841ee9bd9c888e46c0b35574429b1c0f1071806180028dee2f9a10643081604051808215151515815260200191505060405180910390a150565b6000606080606080600460008763ffffffff1663ffffffff16815260200190815260200160002060080160009054906101000a900463ffffffff16600460008863ffffffff1663ffffffff168152602001908152602001600020600101600460008963ffffffff1663ffffffff168152602001908152602001600020600501600460008a63ffffffff1663ffffffff168152602001908152602001600020600601600460008b63ffffffff1663ffffffff168152602001908152602001600020600701838054600181600116156101000203166002900480601f0160208091040260200160405190810160405280929190818152602001828054600181600116156101000203166002900480156120675780601f1061203c57610100808354040283529160200191612067565b820191906000526020600020905b81548152906001019060200180831161204a57829003601f168201915b50505050509350828054600181600116156101000203166002900480601f0160208091040260200160405190810160405280929190818152602001828054600181600116156101000203166002900480156121035780601f106120d857610100808354040283529160200191612103565b820191906000526020600020905b8154815290600101906020018083116120e657829003601f168201915b50505050509250818054600181600116156101000203166002900480601f01602080910402602001604051908101604052809291908181526020018280546001816001161561010002031660029004801561219f5780601f106121745761010080835404028352916020019161219f565b820191906000526020600020905b81548152906001019060200180831161218257829003601f168201915b50505050509150808054600181600116156101000203166002900480601f01602080910402602001604051908101604052809291908181526020018280546001816001161561010002031660029004801561223b5780601f106122105761010080835404028352916020019161223b565b820191906000526020600020905b81548152906001019060200180831161221e57829003601f168201915b505050505090509450945094509450945091939590929450565b61225d6136c7565b6001809054906101000a900473ffffffffffffffffffffffffffffffffffffffff1673ffffffffffffffffffffffffffffffffffffffff163373ffffffffffffffffffffffffffffffffffffffff16141515612347576040517f08c379a00000000000000000000000000000000000000000000000000000000081526004018080602001828103825260268152602001807f4f6e6c79207468652061646d696e2063616e2063616c6c20746869732066756e81526020017f6374696f6e2e000000000000000000000000000000000000000000000000000081525060400191505060405180910390fd5b6123508361334d565b15156123c4576040517f08c379a00000000000000000000000000000000000000000000000000000000081526004018080602001828103825260198152602001807f5468652049442069742773206e6f7420617661696c61626c650000000000000081525060200191505060405180910390fd5b898160200181905250888160400181905250878160600181905250868160800181905250858160a00181905250848160c00181905250838160e001819052508281610100019063ffffffff16908163ffffffff1681525050818161012001906000191690816000191681525050600181600001901515908115158152505080600460008563ffffffff1663ffffffff16815260200190815260200160002060008201518160000160006101000a81548160ff021916908315150217905550602082015181600101908051906020019061249e929190613726565b5060408201518160020190805190602001906124bb929190613726565b5060608201518160030190805190602001906124d8929190613726565b5060808201518160040190805190602001906124f5929190613726565b5060a0820151816005019080519060200190612512929190613726565b5060c082015181600601908051906020019061252f929190613726565b5060e082015181600701908051906020019061254c929190613726565b506101008201518160080160006101000a81548163ffffffff021916908363ffffffff16021790555061012082015181600901906000191690559050506002600081548092919060010191905055507fbfb31782d83b12c928defa9ea7324506943e1770c75a41c4fbd61dec5f31fa4483604051808263ffffffff1663ffffffff16815260200191505060405180910390a150505050505050505050565b60025481565b6001809054906101000a900473ffffffffffffffffffffffffffffffffffffffff1673ffffffffffffffffffffffffffffffffffffffff163373ffffffffffffffffffffffffffffffffffffffff161415156126da576040517f08c379a00000000000000000000000000000000000000000000000000000000081526004018080602001828103825260268152602001807f4f6e6c79207468652061646d696e2063616e2063616c6c20746869732066756e81526020017f6374696f6e2e000000000000000000000000000000000000000000000000000081525060400191505060405180910390fd5b6126e381613391565b1515612757576040517f08c379a00000000000000000000000000000000000000000000000000000000081526004018080602001828103825260138152602001807f54686520636974697a656e20697320646561640000000000000000000000000081525060200191505060405180910390fd5b6000600460008363ffffffff1663ffffffff16815260200190815260200160002060000160006101000a81548160ff021916908315150217905550600260008154809291906001900391905055507f7976ef10e39b537b6b7bf18a514496054d3a3a7763467d5f668d08dfa48228b681604051808263ffffffff1663ffffffff16815260200191505060405180910390a150565b6001809054906101000a900473ffffffffffffffffffffffffffffffffffffffff1673ffffffffffffffffffffffffffffffffffffffff163373ffffffffffffffffffffffffffffffffffffffff161415156128d5576040517f08c379a00000000000000000000000000000000000000000000000000000000081526004018080602001828103825260268152602001807f4f6e6c79207468652061646d696e2063616e2063616c6c20746869732066756e81526020017f6374696f6e2e000000000000000000000000000000000000000000000000000081525060400191505060405180910390fd5b60008160ff16101580156128ec575060048160ff16105b1515612960576040517f08c379a00000000000000000000000000000000000000000000000000000000081526004018080602001828103825260148152602001807f526f6c65206e6f7420696e20746865206c69737400000000000000000000000081525060200191505060405180910390fd5b61296a8282613469565b5050565b600061297861369d565b336040805190810160405280600160ff168152602001600360ff1681525060008060009150600090505b60028160ff1610156129e8576129cd84848360ff166002811015156129c357fe5b6020020151613319565b156129db57600191506129e8565b80806001019150506129a2565b8115156129f457600080fd5b6129fd89613391565b1515612a71576040517f08c379a00000000000000000000000000000000000000000000000000000000081526004018080602001828103825260138152602001807f54686520636974697a656e20697320646561640000000000000000000000000081525060200191505060405180910390fd5b600660008a63ffffffff1663ffffffff1681526020019081526020016000206000019550878560000190600019169081600019168152505086856020019060001916908160001916815250506001856040019015159081151581525050858590806001815401808255809150509060018203906000526020600020906003020160009091929091909150600082015181600001906000191690556020820151816001019060001916905560408201518160020160006101000a81548160ff021916908315150217905550505050505050505050505050565b6000612b558383613319565b905092915050565b6000336040805190810160405280600260ff168152602001600360ff1681525060008060009150600090505b60028160ff161015612bcf57612bb484848360ff16600281101515612baa57fe5b6020020151613319565b15612bc25760019150612bcf565b8080600101915050612b89565b811515612bdb57600080fd5b612be48661334d565b1515612c58576040517f08c379a00000000000000000000000000000000000000000000000000000000081526004018080602001828103825260198152602001807f5468652049442069742773206e6f7420617661696c61626c650000000000000081525060200191505060405180910390fd5b600560008763ffffffff1663ffffffff16815260200190815260200160002060000180549050945050505050919050565b6000606080600460008563ffffffff1663ffffffff16815260200190815260200160002060080160009054906101000a900463ffffffff16600460008663ffffffff1663ffffffff168152602001908152602001600020600101600460008763ffffffff1663ffffffff168152602001908152602001600020600201818054600181600116156101000203166002900480601f016020809104026020016040519081016040528092919081815260200182805460018160011615610100020316600290048015612d9a5780601f10612d6f57610100808354040283529160200191612d9a565b820191906000526020600020905b815481529060010190602001808311612d7d57829003601f168201915b50505050509150808054600181600116156101000203166002900480601f016020809104026020016040519081016040528092919081815260200182805460018160011615610100020316600290048015612e365780601f10612e0b57610100808354040283529160200191612e36565b820191906000526020600020905b815481529060010190602001808311612e1957829003601f168201915b505050505090509250925092509193909250565b6000336040805190810160405280600160ff168152602001600360ff1681525060008060009150600090505b60028160ff161015612ebc57612ea184848360ff16600281101515612e9757fe5b6020020151613319565b15612eaf5760019150612ebc565b8080600101915050612e76565b811515612ec857600080fd5b612ed18661334d565b151515612f46576040517f08c379a00000000000000000000000000000000000000000000000000000000081526004018080602001828103825260198152602001807f5468652049442069742773206e6f7420617661696c61626c650000000000000081525060200191505060405180910390fd5b600660008763ffffffff1663ffffffff16815260200190815260200160002060000180549050945050505050919050565b6000606080606080600080600460008963ffffffff1663ffffffff16815260200190815260200160002060080160009054906101000a900463ffffffff16600460008a63ffffffff1663ffffffff168152602001908152602001600020600101600460008b63ffffffff1663ffffffff168152602001908152602001600020600301600460008c63ffffffff1663ffffffff168152602001908152602001600020600401600460008d63ffffffff1663ffffffff168152602001908152602001600020600501600460008e63ffffffff1663ffffffff16815260200190815260200160002060090154600460008f63ffffffff1663ffffffff16815260200190815260200160002060000160009054906101000a900460ff16858054600181600116156101000203166002900480601f0160208091040260200160405190810160405280929190818152602001828054600181600116156101000203166002900480156131255780601f106130fa57610100808354040283529160200191613125565b820191906000526020600020905b81548152906001019060200180831161310857829003601f168201915b50505050509550848054600181600116156101000203166002900480601f0160208091040260200160405190810160405280929190818152602001828054600181600116156101000203166002900480156131c15780601f10613196576101008083540402835291602001916131c1565b820191906000526020600020905b8154815290600101906020018083116131a457829003601f168201915b50505050509450838054600181600116156101000203166002900480601f01602080910402602001604051908101604052809291908181526020018280546001816001161561010002031660029004801561325d5780601f106132325761010080835404028352916020019161325d565b820191906000526020600020905b81548152906001019060200180831161324057829003601f168201915b50505050509350828054600181600116156101000203166002900480601f0160208091040260200160405190810160405280929190818152602001828054600181600116156101000203166002900480156132f95780601f106132ce576101008083540402835291602001916132f9565b820191906000526020600020905b8154815290600101906020018083116132dc57829003601f168201915b505050505092509650965096509650965096509650919395979092949650565b6000613345836000808560ff1660ff16815260200190815260200160002061350890919063ffffffff16565b905092915050565b600080600460008463ffffffff1663ffffffff16815260200190815260200160002060080160009054906101000a900463ffffffff1663ffffffff16149050919050565b6000600460008363ffffffff1663ffffffff16815260200190815260200160002060000160009054906101000a900460ff169050919050565b6133f4826000808460ff1660ff16815260200190815260200160002061356190919063ffffffff16565b7f0ed8a6a6a166243876472f7a8610b62c1a76c67911642d39ff34ead38105534f8282604051808373ffffffffffffffffffffffffffffffffffffffff1673ffffffffffffffffffffffffffffffffffffffff1681526020018260ff1660ff1681526020019250505060405180910390a15050565b613493826000808460ff1660ff1681526020019081526020016000206135bf90919063ffffffff16565b7f3824b64a1e23d936b458f4e31445c664d2bc9c14e842407917cbc100b0236a2f8282604051808373ffffffffffffffffffffffffffffffffffffffff1673ffffffffffffffffffffffffffffffffffffffff1681526020018260ff1660ff1681526020019250505060405180910390a15050565b60008260000160008373ffffffffffffffffffffffffffffffffffffffff1673ffffffffffffffffffffffffffffffffffffffff16815260200190815260200160002060009054906101000a900460ff16905092915050565b60018260000160008373ffffffffffffffffffffffffffffffffffffffff1673ffffffffffffffffffffffffffffffffffffffff16815260200190815260200160002060006101000a81548160ff0219169083151502179055505050565b60008260000160008373ffffffffffffffffffffffffffffffffffffffff1673ffffffffffffffffffffffffffffffffffffffff16815260200190815260200160002060006101000a81548160ff0219169083151502179055505050565b828054600181600116156101000203166002900490600052602060002090601f016020900481019282601f1061365e57805160ff191683800117855561368c565b8280016001018555821561368c579182015b8281111561368b578251825591602001919060010190613670565b5b50905061369991906137a6565b5090565b60606040519081016040528060008019168152602001600080191681526020016000151581525090565b6101406040519081016040528060001515815260200160608152602001606081526020016060815260200160608152602001606081526020016060815260200160608152602001600063ffffffff168152602001600080191681525090565b828054600181600116156101000203166002900490600052602060002090601f016020900481019282601f1061376757805160ff1916838001178555613795565b82800160010185558215613795579182015b82811115613794578251825591602001919060010190613779565b5b5090506137a291906137a6565b5090565b6137c891905b808211156137c45760008160009055506001016137ac565b5090565b905600a165627a7a7230582091c1de045d6944cfd482b149b696722c3d6d073208b570e6c75fb281407ce35d0029",
  "source": "pragma solidity ^0.4.21;\n\nimport \"./RBAC-SM.sol\";\n\n\ncontract CitizensRecord is RBAC {\n    bool public status;\n    address admin;\n    uint public numberOfActiveUsers;\n    uint32 nextId;\n\n    mapping(uint32 => Citizen) citizensStorage;\n    mapping(uint32 => ClinicRecords) clinicStorage;\n    mapping(uint32 => LegalRecords) legalStorage;\n\n    struct Citizen {\n        bool alive;\n        string name;\n        string lastName;\n        string birthDate;\n        string gender;\n        string nacionality;\n        string residence;\n        string city;\n        uint32 ID;\n        bytes32 image;\n    }\n\n    struct ClinicRecords {\n        Register[] records;\n    }\n\n    struct LegalRecords {\n        Register[] records;\n    }\n\n    struct Register {\n        bytes32 record;\n        bytes32 date;\n        bool valid;\n    }\n\n    event UserAdded(uint32 ID);\n    event UserRemoved(uint32 ID);\n    event StatusChanged(bool Status);\n    event SendRegister(bytes32 record, bytes32 date, bool valid);\n\n    constructor() public {\n        admin = msg.sender;\n        addRole(msg.sender, 3);\n    }\n\n    modifier onlyAdmin() {\n        require(\n            msg.sender == admin,\n            \"Only the admin can call this function.\"\n        );\n        _;\n    }\n\n    function is_available(uint32 _ID) private view returns (bool){\n        return citizensStorage[_ID].ID == 0;\n    }\n\n    function isAlive(uint32 _ID) private view returns (bool){\n        return citizensStorage[_ID].alive;\n    }\n\n    function register_citizen(\n        string _name,\n        string _lastName,\n        string _birthDate,\n        string _gender,\n        string _nacionality,\n        string _residence,\n        string _city,\n        uint32 _ID,\n        bytes32 _image) public onlyAdmin {\n\n        require(is_available(_ID), \"The ID it's not available\");\n\n        Citizen memory citizen;\n\n        citizen.name = _name;\n        citizen.lastName = _lastName;\n        citizen.birthDate = _birthDate;\n        citizen.gender = _gender;\n        citizen.nacionality = _nacionality;\n        citizen.residence = _residence;\n        citizen.city = _city;\n        citizen.ID = _ID;\n        citizen.image = _image;\n        citizen.alive = true;\n\n        citizensStorage[_ID] = citizen;\n        numberOfActiveUsers++;\n        emit UserAdded(_ID);\n    }\n\n    function modify_citizen(\n        string _name,\n        string _lastName,\n        string _birthDate,\n        string _gender,\n        string _nacionality,\n        string _residence,\n        string _city,\n        uint32 _ID,\n        bytes32 _image) public onlyAdmin {\n\n        require(!is_available(_ID), \"there is no one with this ID\");\n\n        Citizen storage citizen = citizensStorage[_ID];\n\n        citizen.name = _name;\n        citizen.lastName = _lastName;\n        citizen.birthDate = _birthDate;\n        citizen.gender = _gender;\n        citizen.nacionality = _nacionality;\n        citizen.residence = _residence;\n        citizen.city = _city;\n        citizen.ID = _ID;\n        citizen.image = _image;\n        citizen.alive = true;\n    }\n\n    function removeUser(uint32 ID) public onlyAdmin {\n        require(isAlive(ID), 'The citizen is dead');\n\n        citizensStorage[ID].alive = false;\n        numberOfActiveUsers--;\n        emit UserRemoved(ID);\n    }\n\n    function registerClinicRecord(\n        uint32 ID,\n        bytes32 record,\n        bytes32 date\n    ) public onlyRoles(msg.sender, [2, 3]) {\n        require(isAlive(ID), 'The citizen is dead');\n\n        Register[] storage aux = legalStorage[ID].records;\n\n        Register memory reg;\n        reg.record = record;\n        reg.date = date;\n        reg.valid = true;\n\n        aux.push(reg);\n    }\n\n    function registerLegalRecord(\n        uint32 ID,\n        bytes32 record,\n        bytes32 date\n    ) public onlyRoles(msg.sender, [1, 3]) {\n        require(isAlive(ID), 'The citizen is dead');\n\n        Register[] storage aux = legalStorage[ID].records;\n\n        Register memory reg;\n        reg.record = record;\n        reg.date = date;\n        reg.valid = true;\n\n        aux.push(reg);\n    }\n\n\n    function deleteClinicRecord(\n        uint32 ID,\n        uint32 recordPosition\n    ) public onlyRoles(msg.sender, [2, 3]) {\n        require(isAlive(ID), 'The citizen is dead');\n        require(clinicStorage[ID].records[recordPosition].valid, \"The incident does not exist\");\n\n        clinicStorage[ID].records[recordPosition].valid = false;\n    }\n\n    function deleteLegalRecord(\n        uint32 ID,\n        uint32 recordPosition\n    ) public onlyRoles(msg.sender, [1, 3]) {\n        require(isAlive(ID), 'The citizen is dead');\n        require(legalStorage[ID].records[recordPosition].valid, \"The incident does not exist\");\n\n        legalStorage[ID].records[recordPosition].valid = false;\n    }\n\n    function getNumberClinicRecords(uint32 ID) public view onlyRoles(msg.sender, [2, 3]) returns (uint) {\n        require(is_available(ID), \"The ID it's not available\");\n        return clinicStorage[ID].records.length;\n    }\n\n    function getNumberLegalRecords(uint32 ID) public view onlyRoles(msg.sender, [1, 3]) returns (uint) {\n        require(!is_available(ID), \"The ID it's not available\");\n        return legalStorage[ID].records.length;\n    }\n\n    function getClinicRecords(\n        uint32 ID,\n        uint32 position\n    ) public onlyRoles(msg.sender, [2, 3]) returns (bytes32, bytes32, bool) {\n        require(!is_available(ID), \"The ID it's not available\");\n        Register storage r = clinicStorage[ID].records[position];\n\n        emit SendRegister(r.record, r.date, r.valid);\n\n        return (r.record, r.date, r.valid);\n    }\n\n    function getLegalRecords(\n        uint32 ID,\n        uint32 position\n    ) public onlyRoles(msg.sender, [1, 3]) returns (bytes32, bytes32, bool) {\n        require(!is_available(ID), \"The ID it's not available\");\n        Register storage r = legalStorage[ID].records[position];\n\n        emit SendRegister(r.record, r.date, r.valid);\n\n        return (r.record, r.date, r.valid);\n    }\n\n\n    function addRole(address addr, uint8 roleNumber) public onlyAdmin {\n        require(roleNumber >= 0 && roleNumber < 4, 'Role not in the list');\n        giveRole(addr, roleNumber);\n    }\n\n    function removeRole(address addr, uint8 roleNumber) public onlyAdmin {\n        require(roleNumber >= 0 && roleNumber < 4, 'Role not in the list');\n        takeAwayRole(addr, roleNumber);\n    }\n\n    function hasSpecificRole(address addr, uint8 roleName) public view returns (bool) {\n        return hasRole(addr, roleName);\n    }\n\n\n    function changeStatus(bool st) public onlyAdmin {\n        status = st;\n        emit StatusChanged(st);\n    }\n\n    function get_name(uint32 _ID) public view returns (uint32, string, string) {\n\n        return (citizensStorage[_ID].ID, citizensStorage[_ID].name, citizensStorage[_ID].lastName);\n    }\n\n    function get_residency(uint32 _ID) public view returns (uint32, string, string, string, string) {\n\n        return (citizensStorage[_ID].ID, citizensStorage[_ID].name, citizensStorage[_ID].nacionality, citizensStorage[_ID].residence, citizensStorage[_ID].city);\n    }\n\n    function get_basic_info(uint32 _ID) public view returns (uint32, string, string, string, string, bytes32, bool) {\n\n        return (citizensStorage[_ID].ID, citizensStorage[_ID].name, citizensStorage[_ID].birthDate, citizensStorage[_ID].gender, citizensStorage[_ID].nacionality, citizensStorage[_ID].image, citizensStorage[_ID].alive);\n    }\n\n    function view_president_address() public view returns (address) {\n        return admin;\n    }\n\n}\n",
  "sourcePath": "/home/a/IdeaProjects/FIB-PTI-ID-of-the-future-using-blockchain/smart-contract/smartContract/contracts/CitizensRecord.sol",
  "compiler": {
    "name": "solc",
    "version": "0.4.24+commit.e67f0147.Emscripten.clang"
  },
  "schemaVersion": "2.0.1",
  "updatedAt": "2018-12-09T19:51:42.902Z"
}